{
  "contractName": "Voting",
  "abi": [
    {
      "constant": true,
      "inputs": [
        {
          "name": "",
          "type": "uint256"
        }
      ],
      "name": "votesReceived",
      "outputs": [
        {
          "name": "",
          "type": "uint256"
        }
      ],
      "payable": false,
      "stateMutability": "view",
      "type": "function"
    },
    {
      "inputs": [
        {
          "name": "_candidateIds",
          "type": "uint256[]"
        }
      ],
      "payable": false,
      "stateMutability": "nonpayable",
      "type": "constructor"
    },
    {
      "constant": true,
      "inputs": [
        {
          "name": "candidate",
          "type": "uint256"
        }
      ],
      "name": "totalVotesFor",
      "outputs": [
        {
          "name": "",
          "type": "uint256"
        }
      ],
      "payable": false,
      "stateMutability": "view",
      "type": "function"
    },
    {
      "constant": false,
      "inputs": [
        {
          "name": "candidate",
          "type": "uint256"
        }
      ],
      "name": "voteForCandidate",
      "outputs": [],
      "payable": false,
      "stateMutability": "nonpayable",
      "type": "function"
    },
    {
      "constant": true,
      "inputs": [
        {
          "name": "candidate",
          "type": "uint256"
        }
      ],
      "name": "validCandidate",
      "outputs": [
        {
          "name": "",
          "type": "bool"
        }
      ],
      "payable": false,
      "stateMutability": "view",
      "type": "function"
    }
  ],
  "bytecode": "0x608060405234801561001057600080fd5b5060405161033b38038061033b833981018060405281019080805182019291905050508060009080519060200190610049929190610050565b50506100c2565b82805482825590600052602060002090810192821561008c579160200282015b8281111561008b578251825591602001919060010190610070565b5b509050610099919061009d565b5090565b6100bf91905b808211156100bb5760008160009055506001016100a3565b5090565b90565b61026a806100d16000396000f300608060405260043610610062576000357c0100000000000000000000000000000000000000000000000000000000900463ffffffff16806321b4bdde1461006757806336c8c5ee146100ac578063a805f1ca146100d9578063f3084a631461011a575b600080fd5b34801561007357600080fd5b506100926004803603810190808035906020019092919050505061015b565b604051808215151515815260200191505060405180910390f35b3480156100b857600080fd5b506100d7600480360381019080803590602001909291905050506101b2565b005b3480156100e557600080fd5b50610104600480360381019080803590602001909291905050506101ee565b6040518082815260200191505060405180910390f35b34801561012657600080fd5b5061014560048036038101908080359060200190929190505050610226565b6040518082815260200191505060405180910390f35b600080600090505b6000805490508110156101a7578260008281548110151561018057fe5b9060005260206000200154141561019a57600191506101ac565b8080600101915050610163565b600091505b50919050565b600115156101bf8261015b565b15151415156101ca57fe5b60018060008381526020019081526020016000206000828254019250508190555050565b6000600115156101fd8361015b565b151514151561020b57600080fd5b60016000838152602001908152602001600020549050919050565b600160205280600052604060002060009150905054815600a165627a7a7230582050d5861e47776bbb9e5aa7227ebfb46ca681534d6f07769d66ad498e2d16ff420029",
  "source": "//pragma solidity ^0.4.4;\n//\n//contract Voting{\n//  // bytes32[] candidates = new bytes32[](1);\n//  bytes32[] candidates;\n//  mapping(bytes32 => uint) candidatesVotingCount;\n//\n//  function Voting(bytes32[] _candidates) public{\n//    for(uint i = 0 ; i < _candidates.length ; i++){\n//      candidates[i] = _candidates[i];\n//    }\n//  }\n//\n//  function votingToPerson(bytes32 person) public{\n//    assert(isValidToPerson(person));\n//    //   require(isValidToPerson(person));\n//    candidatesVotingCount[person] += 1;\n//  }\n//\n//  function votingTotalToPerson(bytes32 person) view returns(uint) {\n//    return candidatesVotingCount[person];\n//  }\n//\n//  function isValidToPerson(bytes32 person) view returns(bool){\n//    for(uint i = 0 ; i < candidates.length ; i++){\n//      if(candidates[i] == person){\n//        return true;\n//      }\n//    }\n//    return false;\n//  }\n//}\npragma solidity ^0.4.24;\n\ncontract Voting {\n\n\n  //   [\"wt\",\"mayun\",\"liuyifei\",\"zhaoliying\",\"mahuateng\"]\n  //   [1,2,3,4,5]\n\n\n  // 存储候选人ID的数组\n  //   bytes32[] candidateNames =new bytes32[](5);\n  //   bytes32[] candidateNames = [\"wt\",\"mayun\",\"liuyifei\",\"zhaoliying\",\"mahuateng\"];\n  uint[] candidateIds;\n  mapping (uint => uint) public votesReceived;\n  // 构造函数 初始化候选人名单\n  constructor(uint[] _candidateIds) public {\n\n    candidateIds = _candidateIds;\n  }\n\n  // 查询某个候选人的总票数\n  function totalVotesFor(uint candidate) public constant returns (uint) {\n    require(validCandidate(candidate) == true);\n    // 或者\n    // assert(validCandidate(candidate) == true);\n    return votesReceived[candidate];\n  }\n\n  // 为某个候选人投票\n  function voteForCandidate(uint candidate)public {\n    assert(validCandidate(candidate) == true);\n    votesReceived[candidate] += 1;\n  }\n\n  // 检索投票的ID是不是候选人的ID\n  function validCandidate(uint candidate) public constant returns (bool) {\n    for(uint i = 0; i < candidateIds.length; i++) {\n      if (candidateIds[i] == candidate) {\n        return true;\n      }\n    }\n    return false;\n  }\n}\n",
  "sourcePath": "/home/sherlocked/src/react-demo/react-box/contracts/Voting.sol",
  "compiler": {
    "name": "solc",
    "version": "0.4.24+commit.e67f0147.Emscripten.clang"
  },
  "schemaVersion": "2.0.1",
  "updatedAt": "2019-05-05T16:44:46.751Z"
}